HEBV03F202510310002      BAC803726200                                          
HEH9783330328FC1997052400381823HCPP                                            
HETA007A  0042900120250205799                                                  
HEH6285359854YP1998111200381835HCPP                                            
HETA003A  0098750120250219285                                                  
HEE0002000000002                                                               HEBV03F202510310005      BAC803428800                                          
HEH8475622562BB1995122300381834HCPP                                            
HETA007A  0042900120250214799                                                  
HEH9783330328FC1997052400381824HCPP                                            
HETA007A  0042900120250218232                                                  
HEE0002000000002                                                               HEBV03F202510310016      BAC804652900                                          
HEH9385847943FT1952010500381836HCPP                                            
HETA001A  0026850120250207141                                                  
HEE0001000000001                                                               
