HEBV03F202510250001      253703726200                                          
HEH5601822231XE2023101500393750HCPP                                            
HETK017A  0056950120251018917                                                  
HEH4026370983EH1986123000394173HCPP                                            
HETA007A  0037950120251018078                                                  
HEH6260974388KR2003122400394164HCPP                                            
HETP003A  0080350120251020650                                                  
HEH2060597586CV2021120900394165HCPP                                            
HETA007A  0037950120251020844                                                  
HEH5761343739PK1988050200394186HCPP                                            
HETA007A  0037950120251021781                                                  
HETK301A  0000000120251021781                                                  
HEH5391003497MN1989080400394255HCPP                                            
HETK005A  0070100120251021300                                                  
HETK054A  0026400120251021300                                                  
HEH6229681926FP1988100200394260HCPP                                            
HETA007A  0037950120251021626                                                  
HETK301A  0000000120251021626                                                  
HEH3986181265XC2012011300394263HCPP                                            
HETA007A  0037950120251021787                                                  
HEH5429941171VL1971102600394265HCPP                                            
HETA007A  0037950120251021460                                                  
HEH6672602254PE2023061400394284HCPP                                            
HETA007A  0037950120251022460                                                  
HEH8695201916JK1998052700394328HCPP                                            
HETA007A  0037950120251023895                                                  
HETK301A  0000000120251023895                                                  
HEH6738291795DG2014113000394327HCPP                                            
HETK013A  0070100120251023300                                                  
HEH4119701672JX2018071100394324HCPP                                            
HETA007A  0037950120251023824                                                  
HEH9342067320XX1992051600394331HCPP                                            
HETA007A  0037950120251023250                                                  
HEE0014000000018                                                               HEBV03F202510250003      253703428800                                          
HEH4286031127VC2002072800394427HCPP                                            
HETK013A  0070100120250808                                                     
HETG538A  0005800120250808                                                     
HEH3481076580HF1991050900394435HCPP                                            
HETA007A  0037950120250809314                                                  
HEH6261521782MX1984111700394437HCPP                                            
HETK013A  0070100120250809                                                     
HEH3422378889AC1995050400394445HCPP                                            
HETK013A  0070100120250809079                                                  
HEH5253946544TY1986051000394447HCPP                                            
HETK013A  0070100120250809569                                                  
HEH8554775042KX1994122200394448HCPP                                            
HETA007A  0037950120250809464                                                  
HEH9661972514GX2012053000394449HCPP                                            
HETA007A  0037950120250809381                                                  
HEH4049975792GE2003112400394457HCPP                                            
HETA007A  0037950120250812706                                                  
HEH6999534123XT1976071100394456HCPP                                            
HETK013A  0070100120250812785                                                  
HEH3677916441CG1991040900393155HCPP                                            
HETA007A  0037950120251009225                                                  
HEH8387624813WL1977121100394248HCPP                                            
HETA003A  0087350120251021787                                                  
HEH1614271425LH1992032300394244HCPP                                            
HETK013A  0070100120251021690                                                  
HEH4418197150KE2021043000394234HCPP                                            
HETA007A  0037950120251021460                                                  
HEH2543377267YW2004081100394231HCPP                                            
HETA003A  0087350120251021477                                                  
HEH2998282764WL1992021000394230HCPP                                            
HETK013A  0070100120251021706                                                  
HEH9085843531AB2002050800394228HCPP                                            
HETK005A  0070100120251021300                                                  
HEH3043921216RB2018030700394321HCPP                                            
HETA007A  0037950120251023528                                                  
HEH8505501489CP1990010100394323HCPP                                            
HETG590A  0005650120251023314                                                  
HETK005A  0070100120251023314                                                  
HEH9068037523XY1986030300394395HCPP                                            
HETK013A  0070100120251023564                                                  
HEH9249337560TK1969120200394345HCPP                                            
HETA007A  00379501202510232332                                                 
HEH3306733506EA1989052600394336HCPP                                            
HETK013A  0070100120251023272                                                  
HEH2673356271TP2025033000394406HCPP                                            
HETG840A  0005400120251024916                                                  
HETA007A  0037950120251024916                                                  
HEH1315889004KN1985052500394410HCPP                                            
HETK013A  0070100120251024626                                                  
HEH9889810629WT1983020200394415HCPP                                            
HETA007A  0037950120251024257                                                  
HETG372A  0003890120251024257                                                  
HEH3218028797FY2006041700394412HCPP                                            
HETA003A  0087350120251024289                                                  
HEH4858321682PE2012011400394482HCPP                                            
HETK013A  0070100120251025787                                                  
HEH3050059439WB2019052100394483HCPP                                            
HETA007A  0037950120251025896                                                  
HEE0027000000031                                                               HEBV03F202510250004      253704755900                                          
HEH4623796564AH1997092500394198HCPP                                            
HETA003A  0087350120251021346                                                  
HEH7376500026JN1976011800394194HCPP                                            
HETK013A  0070100120251021530                                                  
HEH3946091422GN1975080900394213HCPP                                            
HETK131A  0056950120251021234                                                  
HEH3211529312LL2025061100394227HCPP                                            
HETG840A  0005400120251021896                                                  
HETG846A  0005400120251021896                                                  
HETA007A  0037950120251021896                                                  
HEH5729498781CA1983040400394235HCPP                                            
HETK005A  0070100120251021311                                                  
HEH2707127482EM1987010100394338HCPP                                            
HETA007A  0037950120251023845                                                  
HEH6064249623YK1990053100394359HCPP                                            
HETK131A  0056950120251023234                                                  
HEE0007000000009                                                               HEBV03F202510250007      253705546500                                          
HEH3589126493GF2006070700393334HCPP                                            
HETA007A  0037950120251010896                                                  
HETG847A  0005400120251010896                                                  
HEH4269210201HL1966110900394375HCPP                                            
HETK013A  0070100120251021695                                                  
HEH6129144611NL2025061200394376HCPP                                            
HETA007A  0037950120251021896                                                  
HETG846A  0005400120251021896                                                  
HETG841A  0006350120251021896                                                  
HEH9350049103PT2004011500394377HCPP                                            
HETK013A  0070100120251021220                                                  
HEH2329207308BG2002092000394378HCPP                                            
HETA007A  0037950120251021569                                                  
HEH3732669985DH1995102400394379HCPP                                            
HETA007A  0037950120251021232                                                  
HEH5706328829BK2003112100394380HCPP                                            
HETA007A  0037950120251021232                                                  
HEH2941345353RW2000082300394381HCPP                                            
HETK013A  0070100120251021401                                                  
HEH5735861808BG1996041500394382HCPP                                            
HETA007A  0037950120251021896                                                  
HETG538A  0005800120251021896                                                  
HEH9242117209GV1996110700394383HCPP                                            
HETK013A  00701001202510212358                                                 
HEH2219182868KJ1979022300394384HCPP                                            
HETK013A  0070100120251021269                                                  
HEH5701185406RC1996080700394385HCPP                                            
HETA007A  0037950120251021009                                                  
HEH4587263700FY1997091800394386HCPP                                            
HETA007A  0037950120251021530                                                  
HEH6014919838JA2022042800394387HCPP                                            
HETK013A  0070100120251021379                                                  
HEH9231869448GC1989042900394388HCPP                                            
HETA007A  0037950120251021269                                                  
HEH5641270490VW2007122400394389HCPP                                            
HETA003A  0087350120251021787                                                  
HEE0016000000020                                                               HEBV03F202510250008      253705113800                                          
HEH6868008746GG1994042500394160HCPP                                            
HETK005A  0070100120251020311                                                  
HEH6868008746GG1994042500394159HCPP                                            
HETA003A  0087350120251020626                                                  
HEH9944398743HA1997123000394158HCPP                                            
HETK013A  0070100120251020722                                                  
HEH7742035442TJ1954040100394152HCPP                                            
HETA007A  0037950120251020595                                                  
HEH7407883326LC1999081700394150HCPP                                            
HETK131A  0056950120251020917                                                  
HEH3374753626RJ1997032800394149HCPP                                            
HETK131A  0056950120251020917                                                  
HEH5519303225CP2002020500394148HCPP                                            
HETK131A  0056950120251020917                                                  
HEH6677988245LE1998102300394147HCPP                                            
HETA007A  0037950120251020682                                                  
HEH6879818786TL1992111300394146HCPP                                            
HETA003A  0087350120251020306                                                  
HEH9956577648VV2006091700394142HCPP                                            
HETA007A  00379501202510202358                                                 
HEH2929955249TX1999060200394144HCPP                                            
HETA007A  0037950120251020460                                                  
HEE0011000000011                                                               HEBV03F202510250009      253704409300                                          
HEH7676146371DJ2025021100394217HCPP                                            
HETG840A  0005400120250819916                                                  
HETG846A  0005400120250819916                                                  
HETA007A  0037950120250819916                                                  
HEH6865089947WR1993101600394477HCPP                                            
HETA007A  0037950120250820650                                                  
HETK301A  0000000120250820650                                                  
HEH7501630805CH1967030300394314HCPP                                            
HETA007A  0037950120251014530                                                  
HEH4095802197PR2023040400394163HCPP                                            
HETA007A  0037950120251018959                                                  
HETG590A  0005650120251018959                                                  
HEH1613030079FE1998050100394221HCPP                                            
HETG538A  0005800120251021799                                                  
HETK131A  0056950120251021799                                                  
HEE0005000000010                                                               HEBV03F202510250011      253704652900                                          
HEH7182513379FE1999092900394318HCPP                                            
HETK005A  0070100120251020300                                                  
HEH5337790108GT1988021700394155HCPP                                            
HETA003A  0087350120251020787                                                  
HEH5964842990DM2025012500394319HCPP                                            
HETA007A  0037950120251020799                                                  
HETK301A  0000000120251020799                                                  
HEH6014919838JA2022042800394270HCPP                                            
HETA007A  0037950120251022382                                                  
HEH1699111579ND2024081600394351HCPP                                            
HETA007A  0037950120251023896                                                  
HETG590A  0005650120251023896                                                  
HETQ130A  0000000120251023896                                                  
HEH4266572280ND1976121300394369HCPP                                            
HETA007A  0037950120251023650                                                  
HEE0006000000009                                                               HEBV03F202510250013      253705184900                                          
HEH1575320575JE2023102000394271HCPP                                            
HETA003A  0087350120251022057                                                  
HEH8045676114XF2020051900394272HCPP                                            
HETA007A  0037950120251022460                                                  
HEH8599334581AP1970100200394269HCPP                                            
HETA007A  0037950120251022709                                                  
HEH6536964494GF1997120300394274HCPP                                            
HETK005A  0070100120251022300                                                  
HEH7087396060CX1997040800394273HCPP                                            
HETA007A  0037950120251022269                                                  
HEH1915093361WH1998120100394276HCPP                                            
HETA003A  0087350120251022799                                                  
HEH2880303280YX2007011100394279HCPP                                            
HETA007A  0037950120251022626                                                  
HEH7080477966NH1981012300394278HCPP                                            
HETA007A  0037950120251022896                                                  
HETG590A  0005650120251022896                                                  
HEH9209889246RJ1994080500394290HCPP                                            
HETA007A  0037950120251022460                                                  
HEH1007320342YE1995120200394291HCPP                                            
HETA007A  0037950120251022460                                                  
HEH7137603564ML2021032000394287HCPP                                            
HETA007A  0037950120251022034                                                  
HEH6364077096LK2024110100394288HCPP                                            
HETA007A  0037950120251022034                                                  
HEH6564407226YK2014012000394286HCPP                                            
HETA007A  0037950120251022034                                                  
HETG014A  0005700120251022034                                                  
HEH3920273244GC2022101700394289HCPP                                            
HETA007A  0037950120251022034                                                  
HEH8227084343GX1967091400394293HCPP                                            
HETA007A  0037950120251022244                                                  
HEH7845834949AL1995030100394296HCPP                                            
HETA007A  0037950120251022650                                                  
HEH9881220793YD1997111900394298HCPP                                            
HETA007A  0037950120251022840                                                  
HEH9200030188AH1986050900394297HCPP                                            
HETA007A  0037950120251022834                                                  
HEH4172062285KJ1996091600394302HCPP                                            
HETA007A  0037950120251022460                                                  
HEH4655412445XV1980080300394300HCPP                                            
HETK013A  0070100120251022786                                                  
HEH3884573142YC2013011300394301HCPP                                            
HETA007A  0037950120251022847                                                  
HEH5710350272AF2025011000394299HCPP                                            
HETA007A  0037950120251022112                                                  
HEH3669274486BH1994011000394306HCPP                                            
HETA003A  0087350120251022854                                                  
HEH1334397427VN2008053000394304HCPP                                            
HETA007A  0037950120251022216                                                  
HEH3096070598PL2024122000394309HCPP                                            
HETA007A  0037950120251022691                                                  
HEH6099373323BX1992110600394305HCPP                                            
HETA007A  0037950120251022573                                                  
HEH6320227561JW1993012800394310HCPP                                            
HETA007A  0037950120251022847                                                  
HEH7492194902TM2016112500394313HCPP                                            
HETA007A  0037950120251022460                                                  
HETG014A  0005700120251022460                                                  
HEH5981930083PJ1978112600394311HCPP                                            
HETA007A  0037950120251022151                                                  
HEH3378483709WT2001082700394307HCPP                                            
HETA007A  0037950120251022269                                                  
HETG372A  0003890120251022269                                                  
HEE0030000000034                                                               
