HEBV03F202510200001      253703726200                                          
HEH2388400174RE1996061800393799HCPP                                            
HETK013A  0070100120250708780                                                  
HEH7171425577WD2025053000393800HCPP                                            
HETA007A  0037950120250715690                                                  
HETK301A  0000000120250715690                                                  
HEH7171425577WD2025053000393803HCPP                                            
HETA007A  0037950120250721216                                                  
HEH5429941171VL1971102600393911HCPP                                            
HETA007A  0037950120250729829                                                  
HEH8967964647WK1991111200393914HCPP                                            
HETA007A  0037950120250731180                                                  
HETG365A  0012000120250731180                                                  
HETE430A  0011950120250731180                                                  
HEH4517828952LG2007071600393915HCPP                                            
HETA007A  0037950120250731313                                                  
HEH8066524789YJ1994071500394034HCPP                                            
HETA007A  0037950120251020650                                                  
HETK301A  0000000120251020650                                                  
HEH5559690523FF1981071400394033HCPP                                            
HETA003A  0087350120251020628                                                  
HEH7691305440TC2016100800394028HCPP                                            
HETA007A  0037950120251020824                                                  
HEH5264779066JV1989040600394038HCPP                                            
HETA007A  0037950120251020460                                                  
HEE0010000000014                                                               HEBV03F202510200003      253703428800                                          
HEH4449743246YH1993060200393779HCPP                                            
HETK013A  0070100120251018460                                                  
HEH6300817365XT1999022800393780HCPP                                            
HETA007A  0037950120251018034                                                  
HEH8257844251RE2018032100393777HCPP                                            
HETK013A  0070100120251018314                                                  
HEH6401157562TK1983122700393819HCPP                                            
HETK013A  0070100120251018232                                                  
HEE0004000000004                                                               HEBV03F202510200004      253704755900                                          
HEH5736739300BR1992092300393953HCPP                                            
HETA007A  00379501202510202221                                                 
HEH6070530644AF1996082400394081HCPP                                            
HETA003A  0087350120251020785                                                  
HEH9707466224YC1976081100393969HCPP                                            
HETA007A  0037950120251020785                                                  
HEH1355012608DM1969101100394085HCPP                                            
HETA007A  0037950120251020977                                                  
HEH6137041239HL2024110800394011HCPP                                            
HETK013A  0070100120251020460                                                  
HEH4251347920TR1997030900394082HCPP                                            
HETA007A  0037950120251020845                                                  
HEE0006000000006                                                               HEBV03F202510200007      253705546500                                          
HEH3311028447LJ1997111500393862HCPP                                            
HETK013A  0070100120251017269                                                  
HEH9526412177EW1989051500393863HCPP                                            
HETA007A  0037950120251017218                                                  
HEH5735861808BG1996041500393864HCPP                                            
HETA007A  0037950120251017896                                                  
HETG848A  0005400120251017896                                                  
HETG842A  0005400120251017896                                                  
HEH6351222945WK1981060300393865HCPP                                            
HETA007A  0037950120251017401                                                  
HEH9386317672RE2018062500393866HCPP                                            
HETK013A  0070100120251017140                                                  
HEH2900394889CB1997050200393867HCPP                                            
HETK013A  0070100120251017808                                                  
HEH4821851385GM2002071100393868HCPP                                            
HETK013A  0070100120251017009                                                  
HEH1819806728MH1992072200393869HCPP                                            
HETA007A  0037950120251017780                                                  
HEH6099373323BX1992110600393870HCPP                                            
HETK131A  0056950120251017536                                                  
HEH8197446969EG2001053000393871HCPP                                            
HETK013A  0070100120251017280                                                  
HEH2012529307JW1968052300393872HCPP                                            
HETA007A  0037950120251017149                                                  
HEH6982579978EB2025041400393873HCPP                                            
HETA007A  0037950120251017896                                                  
HETG841A  0006350120251017896                                                  
HEH6510403063XA1949010100393879HCPP                                            
HETA007A  0037950120251017786                                                  
HEH9483038361AC2000071400393880HCPP                                            
HETA007A  0037950120251017373                                                  
HEH1297404764MW2000041500393881HCPP                                            
HETA007A  0037950120251017708                                                  
HETG202A  0004450120251017708                                                  
HEH4860820663KX1990051000393882HCPP                                            
HETA007A  0037950120251017895                                                  
HETG552A  0020000120251017895                                                  
HEH2742591460RY1994022000393883HCPP                                            
HETA007A  0037950120251017786                                                  
HEH6729928231JN1968061000393884HCPP                                            
HETA007A  0037950120251017388                                                  
HEH9177628378VC1941042000393885HCPP                                            
HETA007A  0037950120251017232                                                  
HETG590A  0005650120251017232                                                  
HEH6536964494GF1997120300393886HCPP                                            
HETA003A  0087350120251017832                                                  
HEH2937933303JP1990100500393887HCPP                                            
HETA007A  0037950120251017786                                                  
HEH9489925488EH1994100200393890HCPP                                            
HETA007A  0037950120251017179                                                  
HEH2243566102GA1978061600393891HCPP                                            
HETA007A  0037950120251017460                                                  
HETG590A  0005650120251017460                                                  
HETG847A  0005400120251017460                                                  
HEH7799883793HE2006040400393893HCPP                                            
HETK013A  0070100120251017683                                                  
HEH8960263161FR1998072900393894HCPP                                            
HETA007A  0037950120251017184                                                  
HEH5906059794KG2011022500393895HCPP                                            
HETA007A  0037950120251017896                                                  
HETG372A  0003890120251017896                                                  
HETG847A  0005400120251017896                                                  
HEH8672066373NT2025041900393896HCPP                                            
HETK013A  0070100120251017009                                                  
HEH5920898698KC2009030500393898HCPP                                            
HETA007A  0037950120251017708                                                  
HETG202A  0004450120251017708                                                  
HEH3463609564PY1985081600393899HCPP                                            
HETK013A  0070100120251017269                                                  
HEH3568593853ED1952071000393900HCPP                                            
HETA007A  0037950120251017184                                                  
HEH9200030188AH1986050900393902HCPP                                            
HETA007A  0037950120251017834                                                  
HEH7087396060CX1997040800393903HCPP                                            
HETK131A  0056950120251017                                                     
HEH5449843068KN1991072000393904HCPP                                            
HETK013A  0070100120251017401                                                  
HEH2531507495EB1974062400393905HCPP                                            
HETA007A  0037950120251017184                                                  
HEE0034000000045                                                               HEBV03F202510200008      253705113800                                          
HEH3109297881VY1947040200393965HCPP                                            
HETA007A  0037950120251020269                                                  
HETG372A  0003890120251020269                                                  
HEH5897225842BN1997021800393974HCPP                                            
HETA003A  0087350120251020799                                                  
HEH8791658027HJ1962060600394049HCPP                                            
HETA007A  00379501202510202334                                                 
HEH4151096320VT1976120800393970HCPP                                            
HETA007A  0037950120251020715                                                  
HEH5508701207EE1995091600393997HCPP                                            
HETK131A  0056950120251020917                                                  
HEH1928097615VW1943072100394006HCPP                                            
HETA007A  0037950120251020460                                                  
HEH4417605401GT2001082900394004HCPP                                            
HETA007A  0037950120251020567                                                  
HEH8672095695AD1958083000394022HCPP                                            
HETA007A  0037950120251020413                                                  
HEH7188636943JY1991120600394023HCPP                                            
HETA003A  0087350120251020787                                                  
HEH5481077344JA1995011100394035HCPP                                            
HETA007A  0037950120251020895                                                  
HEH6187712283NF1998082900394078HCPP                                            
HETA003A  0087350120251020799                                                  
HEH4653144743XF1997020200394072HCPP                                            
HETK013A  0070100120251020895                                                  
HEH1155387127NC1995081400394075HCPP                                            
HETA007A  0037950120251020460                                                  
HEH5514172567WR1992080100394091HCPP                                            
HETK131A  0056950120251020917                                                  
HEH5336127096EK1995012400394119HCPP                                            
HETA003A  0087350120251020626                                                  
HEH5790507643YH2008101800394094HCPP                                            
HETA007A  0037950120251020896                                                  
HETG590A  0005650120251020896                                                  
HEH7723727900VG2007101700394115HCPP                                            
HETA007A  0037950120251020896                                                  
HETG590A  0005650120251020896                                                  
HEH9515833193KA2016033100394113HCPP                                            
HETA007A  0037950120251020896                                                  
HETG590A  0005650120251020896                                                  
HEH9200030188AH1986050900394133HCPP                                            
HETA007A  0037950120251020834                                                  
HEH7900660148FJ1991031800394135HCPP                                            
HETA001A  0023750120251020078                                                  
HETZ117A  0011650120251020078                                                  
HEH7604491303ET1999082300394138HCPP                                            
HETK013A  0070100120251020244                                                  
HEH4125599664BD1996060500394139HCPP                                            
HETA003A  0087350120251020650                                                  
HEE0022000000027                                                               HEBV03F202510200009      253704409300                                          
HEH9667438205AE1970121100393946HCPP                                            
HETK013A  00701001202507022443                                                 
HEH2777027554CH1957091800394100HCPP                                            
HETK132A  0080950120250702401                                                  
HEH6012884166BE1991111300393975HCPP                                            
HETE079A  0015550120250703895                                                  
HETK013A  0070100120250703895                                                  
HEH6631630131DC1975113000394101HCPP                                            
HETA007A  00379501202507042396                                                 
HEH6605449484HK1977021300393959HCPP                                            
HETA007A  0037950120250704626                                                  
HETG365A  0012000120250704626                                                  
HETE430A  0011950120250704626                                                  
HEH5844659168JA1985021900393875HCPP                                            
HETA007A  00379501202507042299                                                 
HEH5598830239KM1955071500393990HCPP                                            
HETA007A  0037950120250708272                                                  
HETG538A  0005800120250708272                                                  
HEH4312077201EH1992052900393994HCPP                                            
HETK131A  0056950120250708530                                                  
HEH8482277764MY2014021000393907HCPP                                            
HETA007A  0037950120250708734                                                  
HEH6582461726VW1986030300394001HCPP                                            
HETG365A  0012000120250708193                                                  
HETE430A  0011950120250708193                                                  
HETK131A  0056950120250708193                                                  
HEH4903927905XN1954111000394008HCPP                                            
HETK005A  0070100120250709311                                                  
HEH3442853267GD1995101700394012HCPP                                            
HETA007A  0037950120250709626                                                  
HEH6890610303EK2005092300394015HCPP                                            
HETA007A  0037950120250709626                                                  
HEH7800588209LA1977090700394020HCPP                                            
HETA007A  0037950120250709280                                                  
HETK301A  0000000120250709280                                                  
HEH5990563370VX2002091700394027HCPP                                            
HETK005A  0070100120250710300                                                  
HEH9977144311KL1964083100393852HCPP                                            
HETA001A  0023750120250712845                                                  
HEH3905210906DE1960020900393854HCPP                                            
HETG538A  0005800120250712734                                                  
HETK132A  0080950120250712734                                                  
HEH2283993893CN2025061000394039HCPP                                            
HETA007A  0037950120250712916                                                  
HEH5364189760LW1984021900394106HCPP                                            
HETA007A  0037950120250712401                                                  
HEH6631630131DC1975113000394108HCPP                                            
HETK301A  00000001202507152396                                                 
HETA001A  00237501202507152396                                                 
HEH6631630131DC1975113000394109HCPP                                            
HETK301A  00000001202507172396                                                 
HETA001A  00237501202507172396                                                 
HEH3459420265CB1973051900394047HCPP                                            
HETK131A  0056950120250718401                                                  
HEH5449734580DK1980101400394077HCPP                                            
HETA007A  0037950120250722272                                                  
HEH4903927905XN1954111000394088HCPP                                            
HETA007A  0037950120250722845                                                  
HEH6012884166BE1991111300393982HCPP                                            
HETK039A  0033450120250722305                                                  
HEH3905210906DE1960020900393972HCPP                                            
HETA007A  0037950120250722401                                                  
HEH4320676937RC2025030100393830HCPP                                            
HETG840A  0005400120250723916                                                  
HETG846A  0005400120250723916                                                  
HETA007A  0037950120250723916                                                  
HEH2777027554CH1957091800394112HCPP                                            
HETA007A  0037950120250723599                                                  
HEH7802981824EV1956010100394068HCPP                                            
HETG365A  0012000120250724250                                                  
HETE430A  0011950120250724250                                                  
HETK132A  0080950120250724250                                                  
HEH5434648993BR2024012700393838HCPP                                            
HETG841A  0006350120250725916                                                  
HETA002A  0062200120250725916                                                  
HEH3459420265CB1973051900394118HCPP                                            
HETA007A  0037950120250725573                                                  
HETG538A  0005800120250725573                                                  
HEH6605449484HK1977021300393961HCPP                                            
HETA007A  00379501202507252299                                                 
HEH4336298098TK1986092900394120HCPP                                            
HETK013A  0070100120250725895                                                  
HEH9300638542DD1986092900394051HCPP                                            
HETA001A  0023750120250726737                                                  
HEH5990563370VX2002091700394057HCPP                                            
HETA001A  0023750120250729610                                                  
HEH3413941414BY2025071300394062HCPP                                            
HETA007A  0037950120250729779                                                  
HEH7958914868VC1992022200393842HCPP                                            
HETK013A  0070100120250730895                                                  
HEH9337704820WB1957050100393849HCPP                                            
HETK013A  00701001202507302443                                                 
HEH3459420265CB1973051900394054HCPP                                            
HETA007A  0037950120250731787                                                  
HEH1657999460TT1998051500394128HCPP                                            
HETA001A  0023750120250731896                                                  
HEH9337704820WB1957050100393850HCPP                                            
HETK132A  00809501202508022443                                                 
HEH5598830239KM1955071500393991HCPP                                            
HETA007A  0037950120250806799                                                  
HEH6012884166BE1991111300393981HCPP                                            
HETK039A  0033450120250819305                                                  
HEH8482277764MY2014021000393906HCPP                                            
HETA007A  0037950120250826786                                                  
HEH9337704820WB1957050100393859HCPP                                            
HETA007A  0037950120250904272                                                  
HEH9337704820WB1957050100393860HCPP                                            
HETA007A  0037950120250916380                                                  
HEH4320676937RC2025030100393829HCPP                                            
HETG840A  0005400120251007916                                                  
HETA007A  0037950120251007916                                                  
HEH7903645070MF2024072800393833HCPP                                            
HETA007A  0037950120251017799                                                  
HEE0048000000065                                                               HEBV03F202510200011      253704652900                                          
HEH8321508668BN2004090200393956HCPP                                            
HETA007A  0037950120250718704                                                  
HEH3583817717MN2025013100393807HCPP                                            
HETA007A  0037950120250723799                                                  
HETK301A  0000000120250723799                                                  
HEH9333656222JV2004101600393808HCPP                                            
HETG212A  0009750120250723477                                                  
HETG202A  0004450120250723477                                                  
HEH8272560791CM2025030200393811HCPP                                            
HETK013A  0070100120250723916                                                  
HETG840A  0005400120250723916                                                  
HETG846A  0005400120250723916                                                  
HEH4266572280ND1976121300393925HCPP                                            
HETA007A  0037950120250724180                                                  
HETG365A  0012000120250724180                                                  
HETE430A  0011950120250724180                                                  
HEH7182513379FE1999092900393941HCPP                                            
HETK005A  0070100120250730296                                                  
HEH5967452086ND1978061200393985HCPP                                            
HETA007A  0037950120251020460                                                  
HETK301A  0000000120251020460                                                  
HEH3917857140VP1996071600394137HCPP                                            
HETA007A  0037950120251020382                                                  
HEE0008000000015                                                               
