HEBV03F202510250002      BAC803726200                                          
HEH5461883166XA1995072700394182HCPP                                            
HETA007A  0037950120251015216                                                  
HEH5297908989KE1988092400394183HCPP                                            
HETA007A  0037950120251015616                                                  
HEH4193892728WC1961121300394184HCPP                                            
HETA007A  0037950120251015786                                                  
HEH4832769782CM1990102900394185HCPP                                            
HETA007A  0037950120251015787                                                  
HEH3519261030AC1944051800394174HCPP                                            
HETA007A  0037950120251016530                                                  
HEH6001179172ML2021060300394175HCPP                                            
HETA007A  0037950120251016460                                                  
HEH6917025345GM1990062100394176HCPP                                            
HETA007A  0037950120251016272                                                  
HETK055A  0021100120251016272                                                  
HEH4423608795GB2014060300394177HCPP                                            
HETK055A  0021100120251016799                                                  
HETA001A  0023750120251016799                                                  
HEH4178695039EH2013031800394178HCPP                                            
HETK055A  0021100120251016799                                                  
HETA001A  0023750120251016799                                                  
HEH9711605874HL1962071000394179HCPP                                            
HETA003A  0087350120251016780                                                  
HEH1489798726PC1974041300394180HCPP                                            
HETA007A  0037950120251016786                                                  
HEH6794073798PN1954010800394181HCPP                                            
HETK013A  0070100120251016901                                                  
HEH1419977176WL1995051100394166HCPP                                            
HETA007A  0037950120251020786                                                  
HETK301A  0000000120251020786                                                  
HEH5490324331NE2007092800394172HCPP                                            
HETK013A  0070100120251020300                                                  
HEH6028958194FR2021122900394167HCPP                                            
HETG590A  0005650120251020896                                                  
HETQ590A  0005100120251020896                                                  
HEH9038209350EG2018070500394168HCPP                                            
HETA007A  0037950120251020216                                                  
HETG590A  0005650120251020216                                                  
HEH3338085701TN1993110100394169HCPP                                            
HETA007A  0037950120251020269                                                  
HEH2155998434TV1986050100394170HCPP                                            
HETA007A  0037950120251020626                                                  
HEH5664009122VR1980030900394171HCPP                                            
HETK131A  0056950120251020834                                                  
HEH4282527367AW1947050600394187HCPP                                            
HETA007A  0037950120251021564                                                  
HETK301A  0000000120251021564                                                  
HEH5624769484EP1990010500394188HCPP                                            
HETA007A  0037950120251021854                                                  
HETK301A  0000000120251021854                                                  
HEH3277712984LL1976050200394252HCPP                                            
HETA007A  0037950120251021180                                                  
HETG365A  0012000120251021180                                                  
HETE430A  0011950120251021180                                                  
HEH2729938858YG1989042600394253HCPP                                            
HETP004A  0038150120251021650                                                  
HEH3191463151NY1978122500394254HCPP                                            
HETA007A  00379501202510212363                                                 
HEH1765809577PK1990101800394257HCPP                                            
HETK013A  0070100120251021300                                                  
HEH5937395191GT1950062100394256HCPP                                            
HETA007A  0037950120251021787                                                  
HETG590A  0005650120251021787                                                  
HETQ130A  0000000120251021787                                                  
HEH8112292340JH1967112000394258HCPP                                            
HETK030A  0040550120251021250                                                  
HEH4454643141RW1976042700394259HCPP                                            
HETK013A  0070100120251021847                                                  
HEH6690262016RR1958120500394261HCPP                                            
HETA007A  0037950120251021401                                                  
HEH3379619764LK1973031700394262HCPP                                            
HETA007A  0037950120251021845                                                  
HEH8368044387KE1992061600394266HCPP                                            
HETA007A  0037950120251021626                                                  
HEH5796725942HW1950071400394264HCPP                                            
HETA007A  0037950120251021466                                                  
HEH2621390091HN1990010300394268HCPP                                            
HETA007A  0037950120251022278                                                  
HETK301A  0000000120251022278                                                  
HEH8717727310HP1979043000394285HCPP                                            
HETA007A  0037950120251022799                                                  
HEH6677656461DE1970072000394283HCPP                                            
HETA007A  0037950120251022831                                                  
HEH5490324331NE2007092800394281HCPP                                            
HETA007A  0037950120251022269                                                  
HETK301A  0000000120251022269                                                  
HEH5740469100JM1963102100394282HCPP                                            
HETA007A  0037950120251022616                                                  
HEH9519205026XE1992070700394315HCPP                                            
HETA007A  0037950120251023244                                                  
HETK301A  0000000120251023244                                                  
HEH1081071126PE1989080500394316HCPP                                            
HETA007A  0037950120251023573                                                  
HETK301A  0000000120251023573                                                  
HEH2308110341XL1967031200394326HCPP                                            
HETK131A  0056950120251023917                                                  
HEH7992504535LR1964102500394325HCPP                                            
HETG590A  0005650120251023250                                                  
HETK030A  0040550120251023250                                                  
HEE0041000000058                                                               HEBV03F202510250005      BAC803428800                                          
HEH8732077147PF1938021800394461HCPP                                            
HETQ040A  0060000120250808250                                                  
HEH1321090308XX1969060900394417HCPP                                            
HETK030A  0040550120250808250                                                  
HEH1535316572NW1963051600394418HCPP                                            
HETK030A  0040550120250808250                                                  
HEH3484824135VB1977032500394419HCPP                                            
HETA007A  0037950120250808311                                                  
HEH8275393620KV1957121900394420HCPP                                            
HETK013A  00701001202508082358                                                 
HEH6251239221AN1952081200394421HCPP                                            
HETK013A  0070100120250808831                                                  
HEH3316376650KV1950071200394422HCPP                                            
HETA007A  0037950120250808595                                                  
HEH8726999546EX1956092600394424HCPP                                            
HETK030A  0040550120250808250                                                  
HEH8637869960FR2007120700394423HCPP                                            
HETK013A  0070100120250808189                                                  
HEH4460935523AJ1967050400394425HCPP                                            
HETK013A  00701001202508082399                                                 
HEH5818972043EN1994021400394426HCPP                                            
HETP004A  0038150120250808650                                                  
HEH6627149443LR1974053000394428HCPP                                            
HETA007A  0037950120250808785                                                  
HEH4506829607XN1940102000394429HCPP                                            
HETK030A  0040550120250808250                                                  
HEH2830782708WW1948122700394430HCPP                                            
HETK030A  0040550120250808250                                                  
HEH7772405820TE1951010700394431HCPP                                            
HETK013A  0070100120250808272                                                  
HEH4519631354DY1970012100394432HCPP                                            
HETK030A  0040550120250809250                                                  
HETQ012A  0012170120250809250                                                  
HEH2527065409ET1975042400394433HCPP                                            
HETK030A  0040550120250809464                                                  
HEH5877249184LX1982071900394438HCPP                                            
HETA888A  0037950120250809959                                                  
HETQ012A  0011390120250809959                                                  
HEH7243018681NV1983040100394439HCPP                                            
HETQ888A  0037950120250809401                                                  
HETQ012A  0011390120250809401                                                  
HEH3063115962AY1970062300394440HCPP                                            
HETK030A  0040550120250809831                                                  
HETQ012A  0012170120250809831                                                  
HEH4037865922WA1962032200394441HCPP                                            
HETQ888A  0037950120250809289                                                  
HETQ012A  0011390120250809289                                                  
HEH8813099861AD1981112900394442HCPP                                            
HETA888A  0037950120250809477                                                  
HETQ012A  0011390120250809477                                                  
HEH5354165549FN1957041200394443HCPP                                            
HETK030A  0040550120250809250                                                  
HETQ012A  0012170120250809250                                                  
HEH9404813595FF1966120600394444HCPP                                            
HETQ888A  0037950120250809592                                                  
HETQ012A  0011390120250809592                                                  
HEH6835726602RK1989020200394446HCPP                                            
HETQ888A  0037950120250809625                                                  
HETQ012A  0011390120250809625                                                  
HEH3499762700BH1943101100394451HCPP                                            
HETK030A  0040550120250812250                                                  
HEH5960198744NN1954012300394463HCPP                                            
HETK030A  0040550120250812250                                                  
HEH8732077147PF1938021800394462HCPP                                            
HETK013A  0070100120250812250                                                  
HEH5505770429EG1950082000394452HCPP                                            
HETA007A  0037950120250812250                                                  
HEH4896519628PG1958111400394460HCPP                                            
HETK013A  0070100120250812715                                                  
HEH5670877702DY1987112200394459HCPP                                            
HETK013A  0070100120250812269                                                  
HEH6835726602RK1989020200394458HCPP                                            
HETK013A  0070100120250812625                                                  
HEH2471224630VG2012011100394453HCPP                                            
HETK013A  0070100120250812142                                                  
HEH8502023487PH1980041000394454HCPP                                            
HETK013A  0070100120250812530                                                  
HEH2697515043AW1959101200394455HCPP                                            
HETK030A  0040550120250812250                                                  
HEH3678099528NX1952092200394450HCPP                                            
HETK033A  0049350120250812715                                                  
HEH9011425015AN1942041100394465HCPP                                            
HETK013A  0070100120250815250                                                  
HEH9241554089YK1969022400394464HCPP                                            
HETK029A  0070100120250815250                                                  
HEH6628916303RV1986091700394466HCPP                                            
HETA007A  00379501202508152299                                                 
HEH9094393023VR1966021700394467HCPP                                            
HETK030A  0040550120250821250                                                  
HEH3481076580HF1991050900394436HCPP                                            
HETQ200A  0000000120250901314                                                  
HEH9953604833CE1940101100394240HCPP                                            
HETQ040A  0060000120251001250                                                  
HEH2105436196XM1959121900394242HCPP                                            
HETK030A  0040550120251021250                                                  
HEH8117810302HN1967101200394243HCPP                                            
HETK030A  0040550120251021250                                                  
HEH7126485866CV1968010100394249HCPP                                            
HETK030A  0040550120251021250                                                  
HEH5505770429EG1950082000394250HCPP                                            
HETK029A  0070100120251021250                                                  
HEH1073720383WF1968032800394247HCPP                                            
HETK030A  0040550120251021250                                                  
HEH3607248998EK2023062000394246HCPP                                            
HETA007A  0037950120251021460                                                  
HEH6296179911PL1957021600394251HCPP                                            
HETA007A  0037950120251021692                                                  
HEH1289592337HT1956041200394245HCPP                                            
HETA007A  0037950120251021847                                                  
HEH5069321148KC1989070100394241HCPP                                            
HETK013A  0070100120251021626                                                  
HEH3188298685ET1981081500394206HCPP                                            
HETK013A  0070100120251021401                                                  
HEH9727300577HP1943080400394205HCPP                                            
HETK013A  00701001202510212358                                                 
HEH8548458978JK1950102300394212HCPP                                            
HETK030A  0040550120251021250                                                  
HETQ150A  0007000120251021250                                                  
HEH9953604833CE1940101100394238HCPP                                            
HETK030A  0040550120251021250                                                  
HEH7463735246XA1971121800394237HCPP                                            
HETA007A  00379501202510212351                                                 
HEH2994834774YR2021032600394236HCPP                                            
HETA007A  0037950120251021460                                                  
HEH3815606185TP1968121700394233HCPP                                            
HETK030A  0040550120251021250                                                  
HEH3966990529JA1988070300394232HCPP                                            
HETA007A  0037950120251021460                                                  
HEH7979174989XL1988063000394229HCPP                                            
HETK029A  0070100120251021250                                                  
HEH1234982831HC1963032800394317HCPP                                            
HETK013A  0070100120251023272                                                  
HETQ150A  0007000120251023272                                                  
HEH1677730515AW1957011700394390HCPP                                            
HETK013A  0070100120251023571                                                  
HEH8510431839MJ2022111600394392HCPP                                            
HETG590A  0005650120251023896                                                  
HETQ130A  0000000120251023896                                                  
HEH5933604802LK1965042400394393HCPP                                            
HETK030A  0040550120251023250                                                  
HEH6929950068VN1947112000394394HCPP                                            
HETK013A  0070100120251023831                                                  
HEH4795755083HX1963100900394335HCPP                                            
HETK013A  0070100120251023401                                                  
HEH1791980921EC1978041400394344HCPP                                            
HETA003A  0087350120251023787                                                  
HEH4781780434TD1947030600394416HCPP                                            
HETA007A  0037950120251024401                                                  
HEH7083385828RM1956022800394404HCPP                                            
HETK030A  0040550120251024250                                                  
HEH8978382169VM1952011600394407HCPP                                            
HETK013A  0070100120251024401                                                  
HETG538A  0005800120251024401                                                  
HEH1617730203VX1965100100394405HCPP                                            
HETK013A  0070100120251024249                                                  
HEH5068063840DX1984060300394414HCPP                                            
HETA007A  0037950120251024691                                                  
HEH5331328947FA1961041500394473HCPP                                            
HETK013A  0070100120251024250                                                  
HEH7534278473WE1969090100394472HCPP                                            
HETK013A  0070100120251024188                                                  
HEH2467720534JH1962081500394471HCPP                                            
HETK013A  0070100120251024401                                                  
HEH1289592337HT1956041200394470HCPP                                            
HETA007A  0037950120251024388                                                  
HEH5545454380KJ1964041700394480HCPP                                            
HETA003A  0087350120251025785                                                  
HEH8045350728BG1973052000394481HCPP                                            
HETQ888A  00379501202510252358                                                 
HETQ012A  00113901202510252358                                                 
HEH2212898841YH1993082700394485HCPP                                            
HETK013A  0070100120251025272                                                  
HEH5902072569XA1989020200394479HCPP                                            
HETQ888A  0037950120251025625                                                  
HETQ012A  0011390120251025625                                                  
HEH9196178348MW1977122200394478HCPP                                            
HETQ888A  0037950120251025219                                                  
HETQ012A  0011390120251025219                                                  
HEH1167210465LN1956102100394487HCPP                                            
HETQ888A  0037950120251025053                                                  
HETG372A  0003890120251025053                                                  
HETG538A  0005800120251025053                                                  
HETQ012A  0011390120251025053                                                  
HEH3138226364BG1945082100394488HCPP                                            
HETK030A  0040550120251025250                                                  
HETA102A  0015000120251025250                                                  
HEE0083000000103                                                               HEBV03F202510250006      BAC804755900                                          
HEH2707127482EM1987010100394337HCPP                                            
HETQ402A  0000000120250804274                                                  
HEH6636377548ED1999032000394362HCPP                                            
HETQ402A  0000000120250806388                                                  
HEH6248742428PR2024083000394153HCPP                                            
HETQ200A  0000000120250930896                                                  
HEH5405574988JA1940110300394201HCPP                                            
HETQ040A  0060000120251020250                                                  
HEH6064249623YK1990053100394358HCPP                                            
HETQ402A  0000000120251021832                                                  
HEH2455929881CP1967101900394204HCPP                                            
HETA007A  0037950120251021401                                                  
HETG590A  0005650120251021401                                                  
HETQ130A  0000000120251021401                                                  
HEH1233204567FW1952060100394193HCPP                                            
HETA007A  0037950120251021780                                                  
HEH9080209241VC1998073000394195HCPP                                            
HETA007A  0037950120251021650                                                  
HEH1504475565WK1937081700394199HCPP                                            
HETA007A  0037950120251021844                                                  
HEH5405574988JA1940110300394200HCPP                                            
HETA007A  0037950120251021401                                                  
HEH5789600185BY2006101700394196HCPP                                            
HETA007A  0037950120251021706                                                  
HEH7249859203DT1975101000394209HCPP                                            
HETK030A  0040550120251021250                                                  
HEH4427743440NK1956102800394211HCPP                                            
HETK030A  0040550120251021250                                                  
HETG590A  0005650120251021250                                                  
HETQ130A  0000000120251021250                                                  
HEH5059741180CG1997012200394210HCPP                                            
HETA007A  0037950120251021269                                                  
HEH2130288653PN2023050800394216HCPP                                            
HETA007A  0037950120251021224                                                  
HEH4589008426HW1996081000394215HCPP                                            
HETA007A  0037950120251021832                                                  
HEH5693922162CB1952121700394218HCPP                                            
HETA007A  0037950120251021307                                                  
HETG590A  0005650120251021307                                                  
HETQ130A  0000000120251021307                                                  
HEH7560763539WB1966121300394214HCPP                                            
HETA007A  0037950120251021896                                                  
HETG538A  0005800120251021896                                                  
HEH7738986673CD1938092800394239HCPP                                            
HETA007A  0037950120251021307                                                  
HETG590A  0005650120251021307                                                  
HETQ130A  0000000120251021307                                                  
HEH5871991161EE1962121500394226HCPP                                            
HETA007A  0037950120251021460                                                  
HEH4623796564AH1997092500394476HCPP                                            
HETQ200A  0000000120251023                                                     
HEH1624767503YW1979011100394330HCPP                                            
HETK131A  0056950120251023269                                                  
HEH5875251521CV1986061800394329HCPP                                            
HETP004A  0038150120251023650                                                  
HETG538A  0005800120251023650                                                  
HEH9935133646CW1978011200394342HCPP                                            
HETA007A  0037950120251023626                                                  
HEH7687743224NA1963011100394343HCPP                                            
HETA007A  0037950120251023477                                                  
HEH7750123692FA1964092000394340HCPP                                            
HETK005A  0070100120251023300                                                  
HEH4609506383DH1963011300394356HCPP                                            
HETK131A  0056950120251023799                                                  
HEH2905674582NR1992082100394355HCPP                                            
HETG538A  0005800120251023174                                                  
HETG590A  0005650120251023174                                                  
HETQ130A  0000000120251023174                                                  
HETK131A  0056950120251023174                                                  
HEH3158029011YT1964100800394353HCPP                                            
HETK030A  0040550120251023250                                                  
HEH6810271343BH1949011400394354HCPP                                            
HETA007A  0037950120251023234                                                  
HEH1036215422FW1960040900394357HCPP                                            
HETA007A  0037950120251023785                                                  
HEH6636377548ED1999032000394361HCPP                                            
HETA007A  0037950120251023388                                                  
HETG005A  0003880120251023388                                                  
HEH9381045526RT1981112000394352HCPP                                            
HETA007A  0037950120251023460                                                  
HEH5015069502YK1997121600394363HCPP                                            
HETA007A  0037950120251023847                                                  
HEH4979279744YH1986072400394374HCPP                                            
HETA007A  0037950120251023787                                                  
HETQ012A  0011390120251023787                                                  
HEE0035000000050                                                               HEBV03F202510250010      BAC804409300                                          
HEH9695738840LY1991082900394320HCPP                                            
HETA001A  0023750120250807244                                                  
HEH6008668730KN1958080200394267HCPP                                            
HETA007A  0037950120250813272                                                  
HEH1309827200VT1987031000394161HCPP                                            
HETA007A  0037950120251018573                                                  
HETQ012A  0011390120251018573                                                  
HEH8829300725WF1991100500394162HCPP                                            
HETK131A  0056950120251018272                                                  
HETQ012A  0017090120251018272                                                  
HEH3438333563WM1968033100394222HCPP                                            
HETA007A  0037950120251021174                                                  
HETG538A  0005800120251021174                                                  
HEH5588160993DM1993040300394220HCPP                                            
HETA007A  0037950120251021300                                                  
HEH7166890900JF1988090500394224HCPP                                            
HETG538A  0005800120251021896                                                  
HETA001A  0023750120251021896                                                  
HEH6008668730KN1958080200394280HCPP                                            
HETA001A  0023750120251022896                                                  
HETG373A  0006750120251022896                                                  
HEE0008000000013                                                               HEBV03F202510250012      BAC804652900                                          
HEH6612703170EW1995031700394151HCPP                                            
HETQ402A  0000000120251020569                                                  
HEH7389534004JA1957063000394140HCPP                                            
HETA007A  0037950120251020790                                                  
HEH5222501321AE1991120500394141HCPP                                            
HETA007A  0037950120251020573                                                  
HEH6720885968KY1974013100394154HCPP                                            
HETA001A  0023750120251020269                                                  
HEH8689898230KA2012100600394156HCPP                                            
HETK017A  0045250120251020                                                     
HETQ200A  0000000120251020                                                     
HEH5449909984YR1995022100394322HCPP                                            
HETA007A  0037950120251020919                                                  
HETQ012A  0011390120251020919                                                  
HEH3037581661LA1976021600394157HCPP                                            
HETA007A  0037950120251020739                                                  
HETQ012A  0011390120251020739                                                  
HEH5990816646BD1990092700394332HCPP                                            
HETA007A  0037950120251023959                                                  
HETK301A  0000000120251023959                                                  
HEH4828866964GN1981091800394333HCPP                                            
HETG372A  0003890120251023269                                                  
HETA001A  0023750120251023269                                                  
HEH3255323325NB1991082000394346HCPP                                            
HETA007A  0037950120251023680                                                  
HEH3255614434RA2024070900394347HCPP                                            
HETA007A  0037950120251023916                                                  
HEH9597527499NE1939110900394348HCPP                                            
HETK030A  0040550120251023250                                                  
HEH2796441083VM1995061000394341HCPP                                            
HETK301A  0000000120251023650                                                  
HETA001A  0023750120251023650                                                  
HEH7845923122NH1996040200394349HCPP                                            
HETK013A  0070100120251023278                                                  
HEH4257011785RE1995082700394350HCPP                                            
HETA007A  0037950120251023626                                                  
HEH2063921528GH1994111900394365HCPP                                            
HETK131A  0056950120251023917                                                  
HEH5389290106RK1994111800394360HCPP                                            
HETK013A  0070100120251023300                                                  
HEH4397746464HH1992020600394364HCPP                                            
HETK131A  0056950120251023917                                                  
HEH2801246741CB1992111000394366HCPP                                            
HETP004A  0038150120251023650                                                  
HETG590A  0005650120251023650                                                  
HETQ130A  0000000120251023650                                                  
HETG847A  0005400120251023650                                                  
HEH5278692420KY1991071500394368HCPP                                            
HETA007A  0037950120251023244                                                  
HEH8692042438AB1951120200394373HCPP                                            
HETK030A  0040550120251023250                                                  
HETG590A  0005650120251023250                                                  
HETQ130A  0000000120251023250                                                  
HETQ012A  0012170120251023250                                                  
HEH1742061920EB2008122000394371HCPP                                            
HETA007A  0037950120251023626                                                  
HETQ012A  0011390120251023626                                                  
HEH5296233447VM1998080200394372HCPP                                            
HETA007A  0037950120251023278                                                  
HETQ012A  0011390120251023278                                                  
HEH7454892683PT1962081200394370HCPP                                            
HETG372A  0003890120251023269                                                  
HETA001A  0023750120251023269                                                  
HETQ012A  0007130120251023269                                                  
HEE0024000000040                                                               
