HEBV03F202510200002      BAC800000000
HEH7121157874BY1990110800393798HCPP                                            
HETK131A  0056950120250708300                                                  
HEH4853039834FD1940011300393802HCPP                                            
HETA007A  0037950120250715249                                                  
HETK301A  0000000120250715249                                                  
HEH7575039982KM1954090300393806HCPP                                            
HETA007A  0037950120250726799                                                  
HETQ012A  0011390120250726799                                                  
HEH8696988347YL1965012200393910HCPP                                            
HETA007A  0037950120250729799                                                  
HEH4897812667CX1994072600393912HCPP                                            
HETA007A  0037950120250731785                                                  
HEH4917338255TA1996072600393913HCPP                                            
HETA007A  0037950120250731180                                                  
HETG365A  0012000120250731180                                                  
HETE430A  0011950120250731180                                                  
HEH2598197875AN1974122300393916HCPP                                            
HETA007A  0037950120250731379                                                  
HEH1382779310BV1974100100393917HCPP                                            
HETA007A  0037950120250731595                                                  
HETK301A  0000000120250731595                                                  
HEH8062781441CG1981122500393949HCPP                                            
HETK301A  0000000120251020785                                                  
HETK013A  0070100120251020785                                                  
HEH4131661920RE1979112000393950HCPP                                            
HETA007A  00379501202510202358                                                 
HETK301A  00000001202510202358                                                 
HEH7987109852JY1968120600394036HCPP                                            
HETA007A  0037950120251020401                                                  
HETK301A  0000000120251020401                                                  
HEH5935786409KV1992080200394030HCPP                                            
HETA007A  0037950120251020460                                                  
HEH3456909252GD2002012500394026HCPP                                            
HETA007A  0037950120251020379                                                  
HEH3801820915YD1965122200394025HCPP                                            
HETA007A  0037950120251020216