HEBV03F202511040005      BAC803428800                                          
HEH2418385924XL1982042500381859HCPP                                            
HETA007A  0042900120250311180                                                  
HEH5618511009VB1972101700381850HCPP                                            
HETK030A  0045850120250314401                                                  
HEH2734500248EF1958060100381864HCPP                                            
HETA007A  0042900120250314844                                                  
HEH1516535141AP1998100400381861HCPP                                            
HETA007A  0042900120250319460                                                  
HEH9366347384MN1969071700381860HCPP                                            
HETA007A  0042900120250320831                                                  
HETK301A  0000000120250320831                                                  
HEH6102173462XR1988111000381862HCPP                                            
HETA007A  0042900120250327455                                                  
HEH1233204567FW1952060100381863HCPP                                            
HETA007A  0042900120250327272                                                  
HEE0007000000008                                                               HEBV03F202511040006      BAC804755900                                          
HEH7804903784XC1984101600381882HCPP                                            
HETA007A  0042900120250311895                                                  
HEH7870116642NB2000102500381873HCPP                                            
HETA007A  0042900120250312                                                     
HETG845A  0006100120250312                                                     
HEH7870116642NB2000102500381884HCPP                                            
HETA007A  0042900120250312799                                                  
HEH3678629662JN1987120500381881HCPP                                            
HETA003A  0098750120250313380                                                  
HEH2482936107KK1959010100381867HCPP                                            
HETA007A  0042900120250314781                                                  
HEH1009746759GB2025020300381870HCPP                                            
HETA007A  0042900120250317896                                                  
HEH9358687474WY2024122700381858HCPP                                            
HETA007A  0042900120250318307                                                  
HEH4282201799AR2024111900381876HCPP                                            
HETA003A  0098750120250318896                                                  
HEH8108821045KG2017071000381880HCPP                                            
HETA007A  0042900120250318269                                                  
HEH4785152606CR1996102100381868HCPP                                            
HETA003A  0098750120250319232                                                  
HEH5739608320YV1974051400381869HCPP                                            
HETA007A  0042900120250319373                                                  
HEH5487952060FA1993061000381874HCPP                                            
HETA007A  0042900120250319847                                                  
HEH4043311549KY1964111100381883HCPP                                            
HETA007A  0042900120250319174                                                  
HEH5871991161EE1962121500381872HCPP                                            
HETA007A  0042900120250320401                                                  
HEH6971504664HA1984042400381865HCPP                                            
HETA003A  0098750120250325244                                                  
HEH6028220744RA1988071400381871HCPP                                            
HETA007A  0042900120250326280                                                  
HEH5010826344HG1997083000381875HCPP                                            
HETA007A  0042900120250326650                                                  
HEH6755160725HC1998013100381879HCPP                                            
HETA007A  0042900120250326650                                                  
HEH3728180369BH1993082600381878HCPP                                            
HETA007A  0042900120250327626                                                  
HEH9428777313TP2024030100381866HCPP                                            
HETA007A  0042900120250328460                                                  
HEH5528285983EX1965070100381877HCPP                                            
HETA007A  0042900120250328189                                                  
HEE0021000000022                                                               
