HEBV03F202511040006      BAC804755900                                          
HEH7209621924YW2008010100381904HCPP                                            
HETA007A  0037950120250514706                                                  
HEH4988556207AR1992091800381917HCPP                                            
HETA007A  0037950120250516847                                                  
HEE0002000000002                                                               
