HEBV03F202510300006      BAC804755900                                          
HEH4999728886TY1998070300381796HCPP                                            
HETA007A  00379501202505082310                                                 
HEH4455684748YM1998022100381795HCPP                                            
HETA007A  0037950120250513460                                                  
HEH8213422804AM1995110300381799HCPP                                            
HETA007A  0037950120250521625                                                  
HEH9346817282WH1995061900381806HCPP                                            
HETA007A  0037950120250523141                                                  
HEH8033428544BE1996121900381812HCPP                                            
HETA007A  0037950120250523799                                                  
HEH7505945001KR1997012200381797HCPP                                            
HETA007A  0037950120250527455                                                  
HEH8213422804AM1995110300381800HCPP                                            
HETA003A  00873501202506092233                                                 
HEH4786213282HG1997061600381798HCPP                                            
HETA001A  0023750120250616840                                                  
HEE0008000000008                                                               HEBV03F202510300012      BAC805063600                                          
HEH2709097063PJ1996090400381810HCPP                                            
HETA007A  0037950120250529751                                                  
HEE0001000000001                                                               HEBV03F202510300014      BAC804409300                                          
HEH6506039806LW1968030300381809HCPP                                            
HETA007A  0037950120250516078                                                  
HEH1358233607GC1992111600381813HCPP                                            
HETA007A  0037950120250527650                                                  
HEE0002000000002                                                               HEBV03F202510300016      BAC804652900                                          
HEH4321455885JJ1993100300381807HCPP                                            
HETA001A  0023750120250512147                                                  
HEH7598778020LN1992072400381808HCPP                                            
HETA007A  0037950120250619799                                                  
HEE0002000000002                                                               
